:100000000C945A000C9482000C9482000C94820090
:100010000C9482000C9482000C9482000C94820058
:100020000C9482000C9482000C9482000C94820048
:100030000C9482000C9482000C9482000C94820038
:100040000C9469080C9482000C943C0A0C946E0A7F
:100050000C9482000C9482000C9482000C94820018
:100060000C9482000C948200000000080002010041
:100070000003040700000000000000000102040863
:100080001020408001020408102001020408102002
:10009000040404040404040402020202020203032E
:1000A0000303030300000000250028002B00860046
:1000B000DD029E0A11241FBECFEFD8E0DEBFCDBF08
:1000C00011E0A0E0B1E0E2E4F6E102C005900D929B
:1000D000A232B107D9F724E0A2E2B1E001C01D923B
:1000E000A032B207E1F710E0C4EBD0E004C02297E1
:1000F000FE010E941B0BCE3AD107C9F70E94E20A0B
:100100000C941F0B0C940000089508951092270181
:100110001092280110922B0110922D0182E090E0A4
:10012000A0E0B0E080932E0190932F01A0933001C6
:10013000B09331011092450110924F0110924E017F
:100140008EE091E090934D0180934C01109251010B
:1001500008959FB7F8942091790380917703213017
:1001600019F48DBB9FBF08958FBF08952091790327
:10017000222399F03FB7F89420917903213059F464
:100180002DB3209377034DB320917803209524233A
:100190002DBB3FBF02C0309377038CBD9DBD08953A
:1001A0008EBD00000DB407FEFDCF8EB508958FEF14
:1001B0000C94D00061E0FC0184810E9423098091AD
:1001C0006B01882339F010926B01809179038111C2
:1001D0000C94A9000895CF93DF93EC0180916B01FB
:1001E000811109C081E080936B0180916C01909135
:1001F0006D010E94B60060E08C81DF91CF910C947C
:100200002309CF93DF93EC018E81882389F08F81BE
:1002100098859C012F5F3F4F38872F838230924013
:1002200018F40E94D700F3CFCE010E94DA001E829C
:10023000DF91CF9108950F931F93CF93DF93EB013D
:100240000E94B3088B010E94D7008F3F49F00E94A3
:10025000B308601B710B6C177D07A8F380E001C029
:1002600081E0DF91CF911F910F910895CF92DF929E
:10027000FF920F931F93CF93DF9300D000D0CDB7A1
:10028000DEB76C01F62E29833A834B835C830E9490
:100290000101C6010E94EB006CE271E0C6010E9400
:1002A0001B018F2D80640E94D00008E110E05C816A
:1002B0004B813A812981DA01C901002E04C0B6952B
:1002C000A795979587950A94D2F729833A834B830C
:1002D0005C830E94D0000850110929813A814B812A
:1002E0005C81083F8FEF180731F7FF2029F0E8E025
:1002F000FE1621F08FEF03C085E901C087E80E9458
:10030000D00010E00E94D700F601828787FF04C06A
:100310001F3F11F01F5FF6CF0F900F900F900F90BF
:10032000DF91CF911F910F91FF90DF90CF900895B3
:100330000F931F93CF93DF93EC010E94B3088B01BF
:100340000E94D7008A878F3F49F40E94B308601B40
:10035000710B6D327140A0F38FE003C08E3F39F016
:100360008DE08D83CE010E94DA0080E001C081E043
:10037000DF91CF911F910F910895CF92DF92EF926D
:10038000FF920F931F93CF93DF93EC016901011547
:10039000110509F462C0C801820F931F8130924099
:1003A00008F05DC08E81882371F088819981AA81CF
:1003B000BB81481759076A077B0729F48F81988505
:1003C000C816D90610F5488359836A837B838B85C9
:1003D000833039F039E0440F551F661F771F3A9577
:1003E000D1F79A01AB0161E1CE010E943601882369
:1003F00019F083E08D8333C0CE010E9498018823D9
:1004000071F118861F8281E08E838F8198858C150B
:100410009D0540F40E94D7008F81988501969887AA
:100420008F83F3CF6701E00EF11ECE14DF0431F0AD
:100430000E94D700F60181936F01F7CF8F819885D5
:10044000800F911F98878F832985222319F08115AA
:10045000924018F0CE010E94010181E004C0CE015B
:100460000E94DA0080E0DF91CF911F910F91FF9001
:10047000EF90DF90CF900895EF92FF920F931F932C
:10048000790100E012E020E030E00E94BD011F9100
:100490000F91FF90EF900895CF92DF92EF92FF922D
:1004A0000F931F93CF93DF9300D0CDB7DEB78C01AE
:1004B000862F49835A830E94D0004981C42E5A81D5
:1004C000D52EE12CF12CF60181916F010E94D00014
:1004D000FFEFEF1AFF0AE11482E0F806A1F78FEFB1
:1004E0000E94D0008FEF0E94D0000E94D700F80138
:1004F00082878F71853039F081E18583C8010E9440
:10050000DA0080E001C081E00F900F90DF91CF9181
:100510001F910F91FF90EF90DF90CF9008950F9370
:100520001F93CF93DF93EC018901411551056105BC
:10053000710511F482E132C08B85833039F089E096
:10054000440F551F661F771F8A95D1F79A01AB019B
:1005500068E1CE010E943601882311F084E01EC0BC
:10056000A8016EEFCE010E944C028823C1F068E51D
:1005700072E0CE010E941B01811102C085E10EC014
:1005800020E030E0A9016DE0CE010E94360181112A
:1005900004C00E94D700882339F084E18D83CE0106
:1005A0000E94DA0080E004C0CE010E94DA0081E0FF
:1005B000DF91CF911F910F91089580E580936C0199
:1005C00010926D010895CF93DF93EC019C012A5F97
:1005D0003F4F41E050E060E070E08B8D9C8D0E94C9
:1005E00054078823A1F04F89588D698D7A8D452B4A
:1005F000462B472B71F44E815F81688579854F8B3F
:10060000588F698F7A8F8C8180688C8302C080E0DC
:1006100001C081E0DF91CF910895CF93DF93EC018A
:10062000462F6E857F85888999890E94F4058823E5
:1006300041F08A8920E2829FC001112489589E4F8F
:1006400002C080E090E0DF91CF9108954F925F92D9
:100650006F927F92AF92BF92CF92DF92EF92FF9212
:100660000F931F93CF93DF93EC016A017B012D81E0
:10067000222309F457C08B899C89AD89BE898417D0
:100680009507A607B70708F44DC04EC08A859B851D
:10069000AC85BD85EB8DFC8DE585F0E03996AC0130
:1006A000BD0141505109610971090E2E04C07695B2
:1006B0006795579547950A94D2F79701860101509F
:1006C00011092109310904C0369527951795079519
:1006D000EA95D2F70417150726073707B0F58F8973
:1006E000988DA98DBA8D8E839F83A887B98728019D
:1006F00039015E0186E0A80EB11C41145104610469
:10070000710461F14E815F816885798595018B8DDA
:100710009C8D0E942F0691E0491A510861087108CA
:100720008111EBCF80E01FC02230C1F0C114D10491
:10073000E104F10409F0AACF1E821F8218861986EF
:100740001A861B861C861D860DC0892B8A2B8B2B37
:1007500031F2041B150B260B370BC9CFCA86DB867B
:10076000EC86FD8681E0DF91CF911F910F91FF9084
:10077000EF90DF90CF90BF90AF907F906F905F90A1
:100780004F9008950F931F93CF93DF93EC018D81CA
:100790008823C9F18C8187FF30C061E0CE010E94BF
:1007A0000D038C01009779F18D81823048F44B89DB
:1007B0005C896D897E89F801448F558F668F778FAC
:1007C0004F89588D698D7A8DF801538F428F758BC3
:1007D000648BE0916E01F0916F01309759F0B80190
:1007E0006A5E7F4FC80148960995F801808D918D0A
:1007F000938B828B8C818F778C83DF91CF911F912C
:100800000F910C94B90580E0DF91CF911F910F916A
:1008100008952F923F924F925F926F927F928F92A4
:100820009F92AF92BF92CF92DF92EF92FF920F937F
:100830001F93CF93DF9300D000D01F92CDB7DEB7C8
:100840008C017B013A01DC0115968C911597813062
:10085000C9F414968C9181FF15C082FF1BC0F8016A
:10086000438954896589768982859385A485B58570
:1008700084179507A607B70769F0C8010E942603E9
:10088000811108C081E090E0F8019383828380E0C9
:1008900090E046C1630180C0D8015B968D919C9128
:1008A0005C97FC01F481F150B501A40129E0769533
:1008B0006795579547952A95D1F7F423FD8321E055
:1008C0009222FF2309F474C080E092E0881999090C
:1008D00056018C159D0508F45C01D8015B96ED91DD
:1008E000FC915C9716962D903D904D905C901997D9
:1008F000B2E02B1A310841085108058404C0220CCB
:10090000331C441C551C0A94D2F786859785A08910
:10091000B189280E391E4A1E5B1EED812E0E311C38
:10092000411C511CA114F2E0BF0609F088C080915F
:10093000060190910701A0910801B091090182156B
:100940009305A405B50559F48FEF9FEFDC01809363
:10095000060190930701A0930801B0930901970144
:10096000B201A10180917501909176010E948F02E0
:10097000882309F487CF9EEFF91ACA18DB08F8011B
:1009800082859385A485B5858A0D9B1DA11DB11D0A
:1009900082879387A487B587D8011A968D909D90FA
:1009A000AD90BC901D97C114D10409F075CF8AC0D9
:1009B0008114910409F088CF16964D915D916D9147
:1009C0007C911997411551056105710559F45796A8
:1009D0008D919D910D90BC91A02D0097A105B10521
:1009E00041F521C09E012F5F3F4F0E942F068823B3
:1009F00009F44ECF89819A81AB81BC81F801238DA6
:100A0000348DF9012789203129F448EF5FEF60E048
:100A100070E004C048EF5FEF6FEF7FE08417950749
:100A2000A607B70730F0C8010E94E30281114CCF3E
:100A300029CFF80186839783A087B18745CF81149A
:100A4000910429F5D8011A964D915D916D917C9193
:100A50001D9753968D919D910D90BC91A02D481797
:100A600059076A077B0798F00E94B905882309F4A3
:100A700009CF20920601309207014092080150925E
:100A800009018091740181608093740108C041E084
:100A9000C201B1010E94F405882309F4F3CEC40118
:100AA00089589E4FD7019C012A0D3B1DFC01E2177E
:100AB000F30719F04D914193FACFE81BF90BEE0EB5
:100AC000FF1E5BCF53968D919D910D90BC91A02DF3
:100AD000F801248188159905AA05BB0538F4838A95
:100AE000948AA58AB68A206824830CC080916E01FE
:100AF00090916F01892B31F06114710419F0206815
:100B0000F8012483D80114968C9183FD02C0C3019F
:100B100007C0C8010E94C203882309F4B3CEF7CFEF
:100B20000F900F900F900F900F90DF91CF911F912A
:100B30000F91FF90EF90DF90CF90BF90AF909F907C
:100B40008F907F906F905F904F903F902F9008957F
:100B5000CF93DF931F92CDB7DEB7698341E050E0BA
:100B6000BE016F5F7F4F0E9409040F90DF91CF910C
:100B7000089580917401882399F140910601509164
:100B80000701609108017091090127E731E0809128
:100B90007501909176010E948F02882319F140918E
:100BA0007001509171016091720170917301411552
:100BB00051056105710591F027E731E080917501DC
:100BC000909176010E948F02882361F0109270014B
:100BD00010927101109272011092730110927401BF
:100BE00081E0089580E00895CF92DF92EF92FF9226
:100BF000CF936B017C01C42F809106019091070176
:100C0000A0910801B09109018C159D05AE05BF05A5
:100C1000D1F00E94B905811102C080E01AC027E717
:100C200031E0B701A60180917501909176010E9493
:100C30003C02882391F3C0920601D0920701E09212
:100C40000801F0920901809174018C2B809374014A
:100C500081E0CF91FF90EF90DF90CF9008958F9239
:100C60009F92AF92BF92CF92DF92EF92FF920F933B
:100C70001F93CF93DF938C016A017B01E901FC0193
:100C800081859285A385B4850196A11DB11D841728
:100C90009507A607B70710F480E058C0F80143890C
:100CA0005489658976898789803129F4BB27AF2DDE
:100CB0009E2D8D2D09C0D701C60127E0B695A795B9
:100CC000979587952A95D1F74C015D01840E951E65
:100CD000A61EB71EC501B4018090060190900701C1
:100CE000A0900801B0900901681579058A059B0557
:100CF00089F4F8018789803199F4DD24EE24FF24FA
:100D0000F601EE0FFF1FE958FE4F80819181A0E0B0
:100D1000B0E017C040E00E94F4058111EACFBCCFDB
:100D2000E894C7F8DD24EE24FF24F601EE0FFF1F40
:100D3000EE0FFF1FE958FE4F80819181A281B381A0
:100D4000BF7088839983AA83BB8381E0DF91CF91B1
:100D50001F910F91FF90EF90DF90CF90BF90AF90D9
:100D60009F908F9008954F925F926F927F928F9293
:100D70009F92AF92BF92CF92DF92EF92FF920F932A
:100D80001F93CF93DF93EC016A017B0128013901A6
:100D9000423051056105710508F474C049855A85D2
:100DA0006B857C854F5F5F4F6F4F7F4F4C155D05A7
:100DB0006E057F0508F466C08B889C88AD88BE8868
:100DC0008F89803129F477276F2D5E2D4D2D09C035
:100DD000B701A601E7E07695679557954795EA959F
:100DE000D1F7840E951EA61EB71E409106015091A4
:100DF0000701609108017091090184169506A60605
:100E0000B70671F48F89803199F4DD24EE24FF2434
:100E1000F601EE0FFF1FE958FE4F5182408218C0C5
:100E200040E0C501B4010E94F4058111EBCF2AC056
:100E3000E894C7F8DD24EE24FF24F601EE0FFF1F2F
:100E4000EE0FFF1FE958FE4F40825182628273828B
:100E5000809174018160809374018A89823080F06E
:100E60008D819E81AF81B885880D991DAA1DBB1DFE
:100E70008093700190937101A0937201B0937301FC
:100E800081E001C080E0DF91CF911F910F91FF9031
:100E9000EF90DF90CF90BF90AF909F908F907F901A
:100EA0006F905F904F9008952F923F924F925F9274
:100EB0006F927F929F92AF92BF92CF92DF92EF920A
:100EC000FF920F931F93CF93DF93CDB7DEB7609759
:100ED0000FB6F894DEBF0FBECDBF5C014D875E87B5
:100EE0006F87788B1901D9014D905D906D907C9042
:100EF000411451046104710431F0BFEF4B1A5B0AD5
:100F00006B0A7B0A10C0FC014080518062807380B4
:100F1000992493940D851E852F85388901301105FC
:100F20002105310509F0912CD50119962D913D919E
:100F30004D915C911C972F5F3F4F4F4F5F4F29871B
:100F40003A874B875C87730162011D821E821F8274
:100F50001886F50181859285A385B4850D811E8152
:100F60002F813885081719072A073B0708F056C054
:100F700029853A854B855C852C153D054E055F0519
:100F800050F4A2E0CA2ED12CE12CF12CB2E04B2E71
:100F9000512C612C712C9E012F5F3F4FB701A60190
:100FA000C5010E942F068823C9F149815A816B81AE
:100FB0007C81D701C6010196A11DB11D452B462B91
:100FC000472B19F02C013D010FC0AC01BD014419A4
:100FD0005509660977090D851E852F8538894017C3
:100FE00051076207730779F02D813E814F81588543
:100FF0002F5F3F4F4F4F5F4F2D833E834F83588767
:101000006C017D01A6CF0FEF1FEF2FEF3FE0B7017F
:10101000A601C5010E94B306811118C080E041C03D
:10102000D701C6010197A109B1098D839E83AF83C2
:10103000B88797018601AC01BD01C5010E94B306C6
:10104000882361F3CD80DE80EF80F8844C145D044A
:101050006E047F0428F3D1014D915D916D917C91D7
:10106000411551056105710599F4F10140825182E4
:10107000628273829920A1F0FFEF4F1A5F0A6F0A14
:101080007F0AD5014D925D926D927C92139708C0B4
:1010900093018201C5010E94B3068111E6CFBECF44
:1010A00081E060960FB6F894DEBF0FBECDBFDF9132
:1010B000CF911F910F91FF90EF90DF90CF90BF9055
:1010C000AF909F907F906F905F904F903F902F9048
:1010D00008951F920F920FB60F9211242F933F93F2
:1010E0008F939F93AF93BF9380917B0390917C03E9
:1010F000A0917D03B0917E0330917A0323E0230F0A
:101100002D3720F40196A11DB11D05C026E8230F3F
:101110000296A11DB11D20937A0380937B039093C7
:101120007C03A0937D03B0937E0380917F03909115
:101130008003A0918103B09182030196A11DB11D8E
:1011400080937F0390938003A0938103B0938203E5
:10115000BF91AF919F918F913F912F910F900FBEB3
:101160000F901F9018952FB7F89460917B037091A2
:101170007C0380917D0390917E032FBF0895789426
:1011800084B5826084BD84B5816084BD85B582608C
:1011900085BD85B5816085BDEEE6F0E0808181602A
:1011A0008083E1E8F0E0108280818260808380812A
:1011B00081608083E0E8F0E0808181608083E1EB02
:1011C000F0E0808184608083E0EBF0E080818160EA
:1011D0008083EAE7F0E080818460808380818260A0
:1011E0008083808181608083808180688083109289
:1011F000C1000895833081F028F4813099F0823065
:10120000A1F008958730A9F08830B9F08430D1F486
:10121000809180008F7D03C0809180008F778093C4
:101220008000089584B58F7702C084B58F7D84BD1A
:1012300008958091B0008F7703C08091B0008F7DBA
:101240008093B00008950F931F93CF93DF931F9265
:10125000CDB7DEB7282F30E0F901E859FF4F849170
:10126000F901E458FF4F1491F901E057FF4F049141
:101270000023C9F0882321F069830E94FA0869815C
:10128000E02FF0E0EE0FFF1FEC55FF4FA591B4915A
:101290009FB7F8948C91611103C01095812301C010
:1012A000812B8C939FBF0F90DF91CF911F910F9156
:1012B0000895FC01818D228D90E0805C9F4F821B00
:1012C00091098F7399270895FC01918D828D98174C
:1012D00031F0828DE80FF11D858D90E008958FEF3C
:1012E0009FEF0895FC01918D828D981761F0828D9A
:1012F000DF01A80FB11D5D968C91928D9F5F9F734A
:10130000928F90E008958FEF9FEF089584E99AE01F
:10131000892B49F080E090E0892B29F00E94940A03
:1013200081110C9400000895FC01848DDF01A80F49
:10133000B11DA35ABF4F2C91848D90E001968F73FD
:101340009927848FA689B7892C93A089B1898C911C
:1013500080648C93938D848D981306C00288F389E2
:10136000E02D80818F7D80830895CF93DF93EC0102
:10137000888D8823C9F0EA89FB89808185FD05C0B5
:10138000A889B9898C9186FD0FC00FB607FCF5CFEF
:10139000808185FFF2CFA889B9898C9185FFEDCF37
:1013A000CE010E949409E7CFDF91CF910895CF92AB
:1013B000DF92FF920F931F93CF93DF931F92CDB7CE
:1013C000DEB76C0181E0D60158968C9358975B96F6
:1013D0009C915B975C968C915C97981307C0509694
:1013E000ED91FC915197808185FD2EC0F601038D12
:1013F00010E00F5F1F4F0F731127F02EF601848D41
:10140000F81211C00FB607FCF9CFD6015096ED9136
:10141000FC915197808185FFF1CFC60169830E94BD
:1014200094096981EBCF838DE80FF11DE35AFF4FDB
:101430006083D6015B960C935B975296ED91FC917D
:101440005397808180620CC0D6015696ED91FC9135
:10145000579760835096ED91FC91519780818064FD
:10146000808381E090E00F90DF91CF911F910F91E9
:10147000FF90DF90CF9008951F920F920FB60F92BA
:1014800011242F938F939F93EF93FF93E0919303F6
:10149000F09194038081E0919903F0919A0382FD89
:1014A00012C0908180919C038F5F8F7320919D0368
:1014B000821751F0E0919C03F0E0ED57FC4F958FBF
:1014C00080939C0301C08081FF91EF919F918F9148
:1014D0002F910F900FBE0F901F9018951F920F9293
:1014E0000FB60F9211242F933F934F935F936F93F7
:1014F0007F938F939F93AF93BF93EF93FF9383E873
:1015000093E00E949409FF91EF91BF91AF919F9159
:101510008F917F916F915F914F913F912F910F909C
:101520000FBE0F901F90189583E893E00E94590911
:1015300021E0892B09F420E0822F08951092860380
:101540001092850388EE93E0A0E0B0E080938703DB
:1015500090938803A0938903B0938A0386E191E076
:10156000909384038093830385EC90E090939003A1
:1015700080938F0384EC90E0909392038093910387
:1015800080EC90E0909394038093930381EC90E03F
:10159000909396038093950382EC90E09093980348
:1015A0008093970386EC90E090939A03809399033D
:1015B00010929C0310929D0310929E0310929F0321
:1015C000089508950E94BF080E94E10A0E948400C5
:1015D000C6E8D9E00E9485002097E1F30E948609C1
:1015E000F9CFCF92DF92EF92FF920F931F93CF9399
:1015F000DF936C017A01EB01E60EF71E00E010E0CC
:10160000CE15DF0561F06991D601ED91FC91019055
:10161000F081E02DC6010995080F191FF1CFC8010F
:10162000DF91CF911F910F91FF90EF90DF90CF90BE
:101630000895EE0FFF1F0590F491E02D0994F894A2
:02164000FFCFDA
:10164200000020048000FFFFFFFF00000000A8054B
:10165200F10A00000000D709F10A59097209640968
:02166200B509C8
:00000001FF
